:100000000428FF3FFF3FFF3F0313831686010130A3
:100010008800831286010130880004300605F10053
:100020007108003AFF3003190030F000013070050C
:10003000F1007108013A031D3E2888176630FC0064
:10004000FF30FB00FF30FA00FC0B27282E28FB0BAB
:100050002A282D28FA0B2A2827282428FC30FB00E0
:10006000FF30FA00FB0B35283828FA0B35283228E8
:100070006A30FA00FA0B3A2800008813103006059F
:10008000F1007108003AFF3003190030F000013030
:100090007005F20020300605F1007108003AFF30CB
:1000A00003190030F0000130F00570087205F1000E
:1000B0007108013A031D7D2808176630FC00FF30E7
:1000C000FB00FF30FA00FC0B66286D28FB0B69284B
:1000D0006C28FA0B692866286328FC30FB00FF3087
:1000E000FA00FB0B74287728FA0B742871286A3001
:1000F000FA00FA0B79280000081308300605F10011
:100100007108003AFF3003190030F000013070052B
:10011000F1007108013A031D7529333083169900E7
:10012000181578214130A0005430A100A2012030E0
:10013000B10093210D30B500A9211F30FC00FF3024
:10014000FB00FF30FA00FC0BA628AD28FB0BA9280A
:10015000AC28FA0BA928A628A3289830FB00FF306A
:10016000FA00FB0BB428B728FA0BB428B1289E304C
:10017000FA00FA0BB928000000004130A00054300A
:10018000A1002B30A2004330A3004D30A400473023
:10019000A5004630A6003D30A7003130A800A901D7
:1001A0002030B10093210D30B500A9211F30FC0093
:1001B000FF30FB00FF30FA00FC0BDF28E628FB0BCA
:1001C000E228E528FA0BE228DF28DC289830FB003B
:1001D000FF30FA00FB0BED28F028FA0BED28EA2897
:1001E0009E30FA00FA0BF228000000004130A00017
:1001F0005430A1002B30A2004330A3004D30A400A6
:100200004730A5005330A6003D30A700A80120309C
:10021000B10093210D30B500A9211F30FC00FF3043
:10022000FB00FF30FA00FC0B16291D29FB0B1929D6
:100230001C29FA0B1929162913299830FB00FF30C5
:10024000FA00FB0B24292729FA0B242921299E30A7
:10025000FA00FA0B2929000000005330A0004F30AB
:10026000A1004D30A2004530A3002030A400493049
:10027000A5004E30A6002030A7005930A8004F300E
:10028000A9005530AA005230AB002030AC004330FA
:10029000AD004130AE005230AF00B0012030B100AF
:1002A00093211A30B500A9211F30FC00FF30FB005C
:1002B000FF30FA00FC0B5D296429FB0B60296329E0
:1002C000FA0B60295D295A299830FB00FF30FA00AB
:1002D000FB0B6B296E29FA0B6B2968299E30FA00FB
:1002E000FA0B702900000000762907110D287729E4
:1002F000031383169816903083129800831687177D
:100300000713203083120C05F1007108003AFF300A
:1003100003190030F00001307005F1007108013A56
:1003200003198129080003138312B20131088400E4
:100330000008B3003308003A0319A8293308B500B0
:10034000A921B20A3208310784000008B3009A29B3
:1003500008000230031383161805F1007108003AF3
:10036000FF3003190030F00001307005F100710812
:10037000003A031DBD290000A92983123508990000
:100380000800FF3FFF3FFF3FFF3FFF3FFF3FFF3FB3
:02400E007A3FF7
:00000001FF
